{
  "contractName": "TodoList",
  "abi": [
    {
      "inputs": [],
      "stateMutability": "nonpayable",
      "type": "constructor"
    },
    {
      "inputs": [
        {
          "internalType": "uint256",
          "name": "",
          "type": "uint256"
        }
      ],
      "name": "tasks",
      "outputs": [
        {
          "internalType": "uint256",
          "name": "id",
          "type": "uint256"
        },
        {
          "internalType": "string",
          "name": "content",
          "type": "string"
        },
        {
          "internalType": "bool",
          "name": "done",
          "type": "bool"
        }
      ],
      "stateMutability": "view",
      "type": "function"
    },
    {
      "inputs": [
        {
          "internalType": "string",
          "name": "_content",
          "type": "string"
        },
        {
          "internalType": "bool",
          "name": "_done",
          "type": "bool"
        }
      ],
      "name": "createTask",
      "outputs": [],
      "stateMutability": "nonpayable",
      "type": "function"
    }
  ],
  "bytecode": "0x6080604052600080553480156200001557600080fd5b506200005e6040518060400160405280600a81526020017f6669727374207461736b0000000000000000000000000000000000000000000081525060016200006460201b60201c565b620004d6565b600080815480929190620000789062000132565b9190505550604051806060016040528060005481526020018381526020018215158152506001600080548152602001908152602001600020600082015181600001556020820151816001019081620000d19190620003ef565b5060408201518160020160006101000a81548160ff0219169083151502179055509050505050565b7f4e487b7100000000000000000000000000000000000000000000000000000000600052601160045260246000fd5b6000819050919050565b60006200013f8262000128565b91507fffffffffffffffffffffffffffffffffffffffffffffffffffffffffffffffff8203620001745762000173620000f9565b5b600182019050919050565b600081519050919050565b7f4e487b7100000000000000000000000000000000000000000000000000000000600052604160045260246000fd5b7f4e487b7100000000000000000000000000000000000000000000000000000000600052602260045260246000fd5b600060028204905060018216806200020157607f821691505b602082108103620002175762000216620001b9565b5b50919050565b60008190508160005260206000209050919050565b60006020601f8301049050919050565b600082821b905092915050565b600060088302620002817fffffffffffffffffffffffffffffffffffffffffffffffffffffffffffffffff8262000242565b6200028d868362000242565b95508019841693508086168417925050509392505050565b6000819050919050565b6000620002d0620002ca620002c48462000128565b620002a5565b62000128565b9050919050565b6000819050919050565b620002ec83620002af565b62000304620002fb82620002d7565b8484546200024f565b825550505050565b600090565b6200031b6200030c565b62000328818484620002e1565b505050565b5b8181101562000350576200034460008262000311565b6001810190506200032e565b5050565b601f8211156200039f5762000369816200021d565b620003748462000232565b8101602085101562000384578190505b6200039c620003938562000232565b8301826200032d565b50505b505050565b600082821c905092915050565b6000620003c460001984600802620003a4565b1980831691505092915050565b6000620003df8383620003b1565b9150826002028217905092915050565b620003fa826200017f565b67ffffffffffffffff8111156200041657620004156200018a565b5b620004228254620001e8565b6200042f82828562000354565b600060209050601f83116001811462000467576000841562000452578287015190505b6200045e8582620003d1565b865550620004ce565b601f19841662000477866200021d565b60005b82811015620004a1578489015182556001820191506020850194506020810190506200047a565b86831015620004c15784890151620004bd601f891682620003b1565b8355505b6001600288020188555050505b505050505050565b61089980620004e66000396000f3fe608060405234801561001057600080fd5b50600436106100365760003560e01c806316f704301461003b5780638d97767214610057575b600080fd5b6100556004803603810190610050919061036b565b610089565b005b610071600480360381019061006c91906103fd565b61011a565b604051610080939291906104d0565b60405180910390f35b60008081548092919061009b9061053d565b91905055506040518060600160405280600054815260200183815260200182151581525060016000805481526020019081526020016000206000820151816000015560208201518160010190816100f29190610791565b5060408201518160020160006101000a81548160ff0219169083151502179055509050505050565b6001602052806000526040600020600091509050806000015490806001018054610143906105b4565b80601f016020809104026020016040519081016040528092919081815260200182805461016f906105b4565b80156101bc5780601f10610191576101008083540402835291602001916101bc565b820191906000526020600020905b81548152906001019060200180831161019f57829003601f168201915b5050505050908060020160009054906101000a900460ff16905083565b6000604051905090565b600080fd5b600080fd5b600080fd5b600080fd5b6000601f19601f8301169050919050565b7f4e487b7100000000000000000000000000000000000000000000000000000000600052604160045260246000fd5b610240826101f7565b810181811067ffffffffffffffff8211171561025f5761025e610208565b5b80604052505050565b60006102726101d9565b905061027e8282610237565b919050565b600067ffffffffffffffff82111561029e5761029d610208565b5b6102a7826101f7565b9050602081019050919050565b82818337600083830152505050565b60006102d66102d184610283565b610268565b9050828152602081018484840111156102f2576102f16101f2565b5b6102fd8482856102b4565b509392505050565b600082601f83011261031a576103196101ed565b5b813561032a8482602086016102c3565b91505092915050565b60008115159050919050565b61034881610333565b811461035357600080fd5b50565b6000813590506103658161033f565b92915050565b60008060408385031215610382576103816101e3565b5b600083013567ffffffffffffffff8111156103a05761039f6101e8565b5b6103ac85828601610305565b92505060206103bd85828601610356565b9150509250929050565b6000819050919050565b6103da816103c7565b81146103e557600080fd5b50565b6000813590506103f7816103d1565b92915050565b600060208284031215610413576104126101e3565b5b6000610421848285016103e8565b91505092915050565b610433816103c7565b82525050565b600081519050919050565b600082825260208201905092915050565b60005b83811015610473578082015181840152602081019050610458565b83811115610482576000848401525b50505050565b600061049382610439565b61049d8185610444565b93506104ad818560208601610455565b6104b6816101f7565b840191505092915050565b6104ca81610333565b82525050565b60006060820190506104e5600083018661042a565b81810360208301526104f78185610488565b905061050660408301846104c1565b949350505050565b7f4e487b7100000000000000000000000000000000000000000000000000000000600052601160045260246000fd5b6000610548826103c7565b91507fffffffffffffffffffffffffffffffffffffffffffffffffffffffffffffffff820361057a5761057961050e565b5b600182019050919050565b7f4e487b7100000000000000000000000000000000000000000000000000000000600052602260045260246000fd5b600060028204905060018216806105cc57607f821691505b6020821081036105df576105de610585565b5b50919050565b60008190508160005260206000209050919050565b60006020601f8301049050919050565b600082821b905092915050565b6000600883026106477fffffffffffffffffffffffffffffffffffffffffffffffffffffffffffffffff8261060a565b610651868361060a565b95508019841693508086168417925050509392505050565b6000819050919050565b600061068e610689610684846103c7565b610669565b6103c7565b9050919050565b6000819050919050565b6106a883610673565b6106bc6106b482610695565b848454610617565b825550505050565b600090565b6106d16106c4565b6106dc81848461069f565b505050565b5b81811015610700576106f56000826106c9565b6001810190506106e2565b5050565b601f82111561074557610716816105e5565b61071f846105fa565b8101602085101561072e578190505b61074261073a856105fa565b8301826106e1565b50505b505050565b600082821c905092915050565b60006107686000198460080261074a565b1980831691505092915050565b60006107818383610757565b9150826002028217905092915050565b61079a82610439565b67ffffffffffffffff8111156107b3576107b2610208565b5b6107bd82546105b4565b6107c8828285610704565b600060209050601f8311600181146107fb57600084156107e9578287015190505b6107f38582610775565b86555061085b565b601f198416610809866105e5565b60005b828110156108315784890151825560018201915060208501945060208101905061080c565b8683101561084e578489015161084a601f891682610757565b8355505b6001600288020188555050505b50505050505056fea2646970667358221220fc6d60b869af70daca45becef52cc3fe64398a16f41c88192af6908100ff209364736f6c634300080f0033",
  "immutableReferences": {},
  "source": "pragma solidity ^0.8.9;\r\n\r\ncontract TodoList {\r\n    uint256 taskCount = 0;\r\n\r\n    struct Task {\r\n        uint256 id;\r\n        string content;\r\n        bool done;\r\n    }\r\n\r\n    mapping(uint256 => Task) public tasks;\r\n\r\n    constructor() public {\r\n        createTask(\"first task\", true);\r\n    }\r\n\r\n    function createTask(string memory _content, bool _done) public {\r\n        taskCount++;\r\n        // task num (task-count) has content and is set completed = false\r\n        tasks[taskCount] = Task(taskCount, _content, _done);\r\n    }\r\n}\r\n",
  "sourcePath": "C:\\Users\\kalar\\OneDrive\\Documents\\Code\\cadena\\final-projs\\proj1\\contracts\\TodoList.sol",
  "compiler": {
    "name": "solc",
    "version": "0.8.15+commit.e14f2714.Emscripten.clang"
  },
  "schemaVersion": "3.4.8",
  "updatedAt": "2022-08-18T06:34:00.693Z",
  "devdoc": {
    "kind": "dev",
    "methods": {},
    "version": 1
  },
  "userdoc": {
    "kind": "user",
    "methods": {},
    "version": 1
  }
}